{
  "_format": "hh-sol-artifact-1",
  "contractName": "Crowdfunding",
  "sourceName": "contracts/Crowdfunding.sol",
  "abi": [
    {
      "inputs": [
        {
          "internalType": "uint256",
          "name": "",
          "type": "uint256"
        }
      ],
      "name": "campaigns",
      "outputs": [
        {
          "internalType": "address",
          "name": "owner",
          "type": "address"
        },
        {
          "internalType": "string",
          "name": "title",
          "type": "string"
        },
        {
          "internalType": "string",
          "name": "description",
          "type": "string"
        },
        {
          "internalType": "uint256",
          "name": "goal",
          "type": "uint256"
        },
        {
          "internalType": "uint256",
          "name": "deadline",
          "type": "uint256"
        },
        {
          "internalType": "uint256",
          "name": "amountCollected",
          "type": "uint256"
        }
      ],
      "stateMutability": "view",
      "type": "function"
    },
    {
      "inputs": [
        {
          "internalType": "string",
          "name": "_title",
          "type": "string"
        },
        {
          "internalType": "string",
          "name": "_description",
          "type": "string"
        },
        {
          "internalType": "uint256",
          "name": "_goal",
          "type": "uint256"
        },
        {
          "internalType": "uint256",
          "name": "_deadline",
          "type": "uint256"
        }
      ],
      "name": "createCampaign",
      "outputs": [
        {
          "internalType": "uint256",
          "name": "",
          "type": "uint256"
        }
      ],
      "stateMutability": "nonpayable",
      "type": "function"
    },
    {
      "inputs": [
        {
          "internalType": "uint256",
          "name": "_id",
          "type": "uint256"
        }
      ],
      "name": "donateToCampaign",
      "outputs": [],
      "stateMutability": "payable",
      "type": "function"
    },
    {
      "inputs": [],
      "name": "getAllCampaigns",
      "outputs": [
        {
          "components": [
            {
              "internalType": "address",
              "name": "owner",
              "type": "address"
            },
            {
              "internalType": "string",
              "name": "title",
              "type": "string"
            },
            {
              "internalType": "string",
              "name": "description",
              "type": "string"
            },
            {
              "internalType": "uint256",
              "name": "goal",
              "type": "uint256"
            },
            {
              "internalType": "uint256",
              "name": "deadline",
              "type": "uint256"
            },
            {
              "internalType": "uint256",
              "name": "amountCollected",
              "type": "uint256"
            },
            {
              "internalType": "address[]",
              "name": "donors",
              "type": "address[]"
            },
            {
              "internalType": "uint256[]",
              "name": "donations",
              "type": "uint256[]"
            }
          ],
          "internalType": "struct Crowdfunding.Campaign[]",
          "name": "",
          "type": "tuple[]"
        }
      ],
      "stateMutability": "view",
      "type": "function"
    },
    {
      "inputs": [
        {
          "internalType": "uint256",
          "name": "_id",
          "type": "uint256"
        }
      ],
      "name": "getDonors",
      "outputs": [
        {
          "internalType": "address[]",
          "name": "",
          "type": "address[]"
        },
        {
          "internalType": "uint256[]",
          "name": "",
          "type": "uint256[]"
        }
      ],
      "stateMutability": "view",
      "type": "function"
    },
    {
      "inputs": [],
      "name": "numberOfCampaigns",
      "outputs": [
        {
          "internalType": "uint256",
          "name": "",
          "type": "uint256"
        }
      ],
      "stateMutability": "view",
      "type": "function"
    }
  ],
  "bytecode": "0x6080604052348015600f57600080fd5b506118b18061001f6000396000f3fe6080604052600436106100555760003560e01c806307ca140d1461005a578063141961bc1461008557806329516511146100c757806342a4fda81461010557806386cdf60414610121578063a318f2691461014c575b600080fd5b34801561006657600080fd5b5061006f610189565b60405161007c9190610ae5565b60405180910390f35b34801561009157600080fd5b506100ac60048036038101906100a79190610b40565b61018f565b6040516100be96959493929190610c3e565b60405180910390f35b3480156100d357600080fd5b506100ee60048036038101906100e99190610b40565b6102fb565b6040516100fc929190610e29565b60405180910390f35b61011f600480360381019061011a9190610b40565b61044f565b005b34801561012d57600080fd5b50610136610629565b604051610143919061110f565b60405180910390f35b34801561015857600080fd5b50610173600480360381019061016e9190611266565b610961565b6040516101809190610ae5565b60405180910390f35b60015481565b60006020528060005260406000206000915090508060000160009054906101000a900473ffffffffffffffffffffffffffffffffffffffff16908060010180546101d890611334565b80601f016020809104026020016040519081016040528092919081815260200182805461020490611334565b80156102515780601f1061022657610100808354040283529160200191610251565b820191906000526020600020905b81548152906001019060200180831161023457829003601f168201915b50505050509080600201805461026690611334565b80601f016020809104026020016040519081016040528092919081815260200182805461029290611334565b80156102df5780601f106102b4576101008083540402835291602001916102df565b820191906000526020600020905b8154815290600101906020018083116102c257829003601f168201915b5050505050908060030154908060040154908060050154905086565b6060806001548310610342576040517f08c379a0000000000000000000000000000000000000000000000000000000008152600401610339906113b1565b60405180910390fd5b600080848152602001908152602001600020600601600080858152602001908152602001600020600701818054806020026020016040519081016040528092919081815260200182805480156103ed57602002820191906000526020600020905b8160009054906101000a900473ffffffffffffffffffffffffffffffffffffffff1673ffffffffffffffffffffffffffffffffffffffff16815260200190600101908083116103a3575b505050505091508080548060200260200160405190810160405280929190818152602001828054801561043f57602002820191906000526020600020905b81548152602001906001019080831161042b575b5050505050905091509150915091565b6001548110610493576040517f08c379a000000000000000000000000000000000000000000000000000000000815260040161048a906113b1565b60405180910390fd5b6000806000838152602001908152602001600020905080600601339080600181540180825580915050600190039060005260206000200160009091909190916101000a81548173ffffffffffffffffffffffffffffffffffffffff021916908373ffffffffffffffffffffffffffffffffffffffff160217905550806007013490806001815401808255809150506001900390600052602060002001600090919091909150553481600501600082825461054d9190611400565b9250508190555060008160000160009054906101000a900473ffffffffffffffffffffffffffffffffffffffff1673ffffffffffffffffffffffffffffffffffffffff163460405161059e90611465565b60006040518083038185875af1925050503d80600081146105db576040519150601f19603f3d011682016040523d82523d6000602084013e6105e0565b606091505b5050905080610624576040517f08c379a000000000000000000000000000000000000000000000000000000000815260040161061b906114c6565b60405180910390fd5b505050565b6060600060015467ffffffffffffffff8111156106495761064861113b565b5b60405190808252806020026020018201604052801561068257816020015b61066f610a71565b8152602001906001900390816106675790505b50905060005b60015481101561095957600080828152602001908152602001600020604051806101000160405290816000820160009054906101000a900473ffffffffffffffffffffffffffffffffffffffff1673ffffffffffffffffffffffffffffffffffffffff1673ffffffffffffffffffffffffffffffffffffffff16815260200160018201805461071690611334565b80601f016020809104026020016040519081016040528092919081815260200182805461074290611334565b801561078f5780601f106107645761010080835404028352916020019161078f565b820191906000526020600020905b81548152906001019060200180831161077257829003601f168201915b505050505081526020016002820180546107a890611334565b80601f01602080910402602001604051908101604052809291908181526020018280546107d490611334565b80156108215780601f106107f657610100808354040283529160200191610821565b820191906000526020600020905b81548152906001019060200180831161080457829003601f168201915b50505050508152602001600382015481526020016004820154815260200160058201548152602001600682018054806020026020016040519081016040528092919081815260200182805480156108cd57602002820191906000526020600020905b8160009054906101000a900473ffffffffffffffffffffffffffffffffffffffff1673ffffffffffffffffffffffffffffffffffffffff1681526020019060010190808311610883575b505050505081526020016007820180548060200260200160405190810160405280929190818152602001828054801561092557602002820191906000526020600020905b815481526020019060010190808311610911575b505050505081525050828281518110610941576109406114e6565b5b60200260200101819052508080600101915050610688565b508091505090565b60004282116109a5576040517f08c379a000000000000000000000000000000000000000000000000000000000815260040161099c90611561565b60405180910390fd5b600080600060015481526020019081526020016000209050338160000160006101000a81548173ffffffffffffffffffffffffffffffffffffffff021916908373ffffffffffffffffffffffffffffffffffffffff16021790555085816001019081610a11919061172d565b5084816002019081610a23919061172d565b508381600301819055508281600401819055506000816005018190555060016000815480929190610a53906117ff565b919050555060018054610a669190611847565b915050949350505050565b604051806101000160405280600073ffffffffffffffffffffffffffffffffffffffff168152602001606081526020016060815260200160008152602001600081526020016000815260200160608152602001606081525090565b6000819050919050565b610adf81610acc565b82525050565b6000602082019050610afa6000830184610ad6565b92915050565b6000604051905090565b600080fd5b600080fd5b610b1d81610acc565b8114610b2857600080fd5b50565b600081359050610b3a81610b14565b92915050565b600060208284031215610b5657610b55610b0a565b5b6000610b6484828501610b2b565b91505092915050565b600073ffffffffffffffffffffffffffffffffffffffff82169050919050565b6000610b9882610b6d565b9050919050565b610ba881610b8d565b82525050565b600081519050919050565b600082825260208201905092915050565b60005b83811015610be8578082015181840152602081019050610bcd565b60008484015250505050565b6000601f19601f8301169050919050565b6000610c1082610bae565b610c1a8185610bb9565b9350610c2a818560208601610bca565b610c3381610bf4565b840191505092915050565b600060c082019050610c536000830189610b9f565b8181036020830152610c658188610c05565b90508181036040830152610c798187610c05565b9050610c886060830186610ad6565b610c956080830185610ad6565b610ca260a0830184610ad6565b979650505050505050565b600081519050919050565b600082825260208201905092915050565b6000819050602082019050919050565b610ce281610b8d565b82525050565b6000610cf48383610cd9565b60208301905092915050565b6000602082019050919050565b6000610d1882610cad565b610d228185610cb8565b9350610d2d83610cc9565b8060005b83811015610d5e578151610d458882610ce8565b9750610d5083610d00565b925050600181019050610d31565b5085935050505092915050565b600081519050919050565b600082825260208201905092915050565b6000819050602082019050919050565b610da081610acc565b82525050565b6000610db28383610d97565b60208301905092915050565b6000602082019050919050565b6000610dd682610d6b565b610de08185610d76565b9350610deb83610d87565b8060005b83811015610e1c578151610e038882610da6565b9750610e0e83610dbe565b925050600181019050610def565b5085935050505092915050565b60006040820190508181036000830152610e438185610d0d565b90508181036020830152610e578184610dcb565b90509392505050565b600081519050919050565b600082825260208201905092915050565b6000819050602082019050919050565b600082825260208201905092915050565b6000610ea882610bae565b610eb28185610e8c565b9350610ec2818560208601610bca565b610ecb81610bf4565b840191505092915050565b600082825260208201905092915050565b6000610ef282610cad565b610efc8185610ed6565b9350610f0783610cc9565b8060005b83811015610f38578151610f1f8882610ce8565b9750610f2a83610d00565b925050600181019050610f0b565b5085935050505092915050565b600082825260208201905092915050565b6000610f6182610d6b565b610f6b8185610f45565b9350610f7683610d87565b8060005b83811015610fa7578151610f8e8882610da6565b9750610f9983610dbe565b925050600181019050610f7a565b5085935050505092915050565b600061010083016000830151610fcd6000860182610cd9565b5060208301518482036020860152610fe58282610e9d565b91505060408301518482036040860152610fff8282610e9d565b91505060608301516110146060860182610d97565b5060808301516110276080860182610d97565b5060a083015161103a60a0860182610d97565b5060c083015184820360c08601526110528282610ee7565b91505060e083015184820360e086015261106c8282610f56565b9150508091505092915050565b60006110858383610fb4565b905092915050565b6000602082019050919050565b60006110a582610e60565b6110af8185610e6b565b9350836020820285016110c185610e7c565b8060005b858110156110fd57848403895281516110de8582611079565b94506110e98361108d565b925060208a019950506001810190506110c5565b50829750879550505050505092915050565b60006020820190508181036000830152611129818461109a565b905092915050565b600080fd5b600080fd5b7f4e487b7100000000000000000000000000000000000000000000000000000000600052604160045260246000fd5b61117382610bf4565b810181811067ffffffffffffffff821117156111925761119161113b565b5b80604052505050565b60006111a5610b00565b90506111b1828261116a565b919050565b600067ffffffffffffffff8211156111d1576111d061113b565b5b6111da82610bf4565b9050602081019050919050565b82818337600083830152505050565b6000611209611204846111b6565b61119b565b90508281526020810184848401111561122557611224611136565b5b6112308482856111e7565b509392505050565b600082601f83011261124d5761124c611131565b5b813561125d8482602086016111f6565b91505092915050565b600080600080608085870312156112805761127f610b0a565b5b600085013567ffffffffffffffff81111561129e5761129d610b0f565b5b6112aa87828801611238565b945050602085013567ffffffffffffffff8111156112cb576112ca610b0f565b5b6112d787828801611238565b93505060406112e887828801610b2b565b92505060606112f987828801610b2b565b91505092959194509250565b7f4e487b7100000000000000000000000000000000000000000000000000000000600052602260045260246000fd5b6000600282049050600182168061134c57607f821691505b60208210810361135f5761135e611305565b5b50919050565b7f43616d706169676e20646f6573206e6f74206578697374000000000000000000600082015250565b600061139b601783610bb9565b91506113a682611365565b602082019050919050565b600060208201905081810360008301526113ca8161138e565b9050919050565b7f4e487b7100000000000000000000000000000000000000000000000000000000600052601160045260246000fd5b600061140b82610acc565b915061141683610acc565b925082820190508082111561142e5761142d6113d1565b5b92915050565b600081905092915050565b50565b600061144f600083611434565b915061145a8261143f565b600082019050919050565b600061147082611442565b9150819050919050565b7f4661696c656420746f2073656e64204574686572000000000000000000000000600082015250565b60006114b0601483610bb9565b91506114bb8261147a565b602082019050919050565b600060208201905081810360008301526114df816114a3565b9050919050565b7f4e487b7100000000000000000000000000000000000000000000000000000000600052603260045260246000fd5b7f446561646c696e65206d75737420626520696e20746865206675747572650000600082015250565b600061154b601e83610bb9565b915061155682611515565b602082019050919050565b6000602082019050818103600083015261157a8161153e565b9050919050565b60008190508160005260206000209050919050565b60006020601f8301049050919050565b600082821b905092915050565b6000600883026115e37fffffffffffffffffffffffffffffffffffffffffffffffffffffffffffffffff826115a6565b6115ed86836115a6565b95508019841693508086168417925050509392505050565b6000819050919050565b600061162a61162561162084610acc565b611605565b610acc565b9050919050565b6000819050919050565b6116448361160f565b61165861165082611631565b8484546115b3565b825550505050565b600090565b61166d611660565b61167881848461163b565b505050565b5b8181101561169c57611691600082611665565b60018101905061167e565b5050565b601f8211156116e1576116b281611581565b6116bb84611596565b810160208510156116ca578190505b6116de6116d685611596565b83018261167d565b50505b505050565b600082821c905092915050565b6000611704600019846008026116e6565b1980831691505092915050565b600061171d83836116f3565b9150826002028217905092915050565b61173682610bae565b67ffffffffffffffff81111561174f5761174e61113b565b5b6117598254611334565b6117648282856116a0565b600060209050601f8311600181146117975760008415611785578287015190505b61178f8582611711565b8655506117f7565b601f1984166117a586611581565b60005b828110156117cd578489015182556001820191506020850194506020810190506117a8565b868310156117ea57848901516117e6601f8916826116f3565b8355505b6001600288020188555050505b505050505050565b600061180a82610acc565b91507fffffffffffffffffffffffffffffffffffffffffffffffffffffffffffffffff820361183c5761183b6113d1565b5b600182019050919050565b600061185282610acc565b915061185d83610acc565b9250828203905081811115611875576118746113d1565b5b9291505056fea264697066735822122055c6ca566c6a8bf3e05d66b91cc7938d5b8b91c01b5dc29a9392ffc211737b8664736f6c634300081c0033",
  "linkReferences": {},
  "deployedLinkReferences": {}
}